{
  "_format": "hh-sol-artifact-1",
  "contractName": "NFT",
  "sourceName": "contracts/NFT.sol",
  "abi": [
    {
      "inputs": [],
      "stateMutability": "nonpayable",
      "type": "constructor"
    },
    {
      "anonymous": false,
      "inputs": [
        {
          "indexed": true,
          "internalType": "address",
          "name": "owner",
          "type": "address"
        },
        {
          "indexed": true,
          "internalType": "address",
          "name": "approved",
          "type": "address"
        },
        {
          "indexed": true,
          "internalType": "uint256",
          "name": "tokenId",
          "type": "uint256"
        }
      ],
      "name": "Approval",
      "type": "event"
    },
    {
      "anonymous": false,
      "inputs": [
        {
          "indexed": true,
          "internalType": "address",
          "name": "owner",
          "type": "address"
        },
        {
          "indexed": true,
          "internalType": "address",
          "name": "operator",
          "type": "address"
        },
        {
          "indexed": false,
          "internalType": "bool",
          "name": "approved",
          "type": "bool"
        }
      ],
      "name": "ApprovalForAll",
      "type": "event"
    },
    {
      "anonymous": false,
      "inputs": [
        {
          "indexed": false,
          "internalType": "uint256",
          "name": "id",
          "type": "uint256"
        }
      ],
      "name": "MintToken",
      "type": "event"
    },
    {
      "anonymous": false,
      "inputs": [
        {
          "indexed": true,
          "internalType": "address",
          "name": "previousOwner",
          "type": "address"
        },
        {
          "indexed": true,
          "internalType": "address",
          "name": "newOwner",
          "type": "address"
        }
      ],
      "name": "OwnershipTransferred",
      "type": "event"
    },
    {
      "anonymous": false,
      "inputs": [
        {
          "indexed": true,
          "internalType": "address",
          "name": "from",
          "type": "address"
        },
        {
          "indexed": true,
          "internalType": "address",
          "name": "to",
          "type": "address"
        },
        {
          "indexed": true,
          "internalType": "uint256",
          "name": "tokenId",
          "type": "uint256"
        }
      ],
      "name": "Transfer",
      "type": "event"
    },
    {
      "inputs": [],
      "name": "MINT_PRICE",
      "outputs": [
        {
          "internalType": "uint256",
          "name": "",
          "type": "uint256"
        }
      ],
      "stateMutability": "view",
      "type": "function"
    },
    {
      "inputs": [],
      "name": "Owner",
      "outputs": [
        {
          "internalType": "address",
          "name": "",
          "type": "address"
        }
      ],
      "stateMutability": "view",
      "type": "function"
    },
    {
      "inputs": [
        {
          "internalType": "address",
          "name": "to",
          "type": "address"
        },
        {
          "internalType": "uint256",
          "name": "tokenId",
          "type": "uint256"
        }
      ],
      "name": "approve",
      "outputs": [],
      "stateMutability": "nonpayable",
      "type": "function"
    },
    {
      "inputs": [
        {
          "internalType": "address",
          "name": "owner",
          "type": "address"
        }
      ],
      "name": "balanceOf",
      "outputs": [
        {
          "internalType": "uint256",
          "name": "",
          "type": "uint256"
        }
      ],
      "stateMutability": "view",
      "type": "function"
    },
    {
      "inputs": [],
      "name": "baseTokenURI",
      "outputs": [
        {
          "internalType": "string",
          "name": "",
          "type": "string"
        }
      ],
      "stateMutability": "view",
      "type": "function"
    },
    {
      "inputs": [
        {
          "internalType": "uint256",
          "name": "tokenId",
          "type": "uint256"
        }
      ],
      "name": "getApproved",
      "outputs": [
        {
          "internalType": "address",
          "name": "",
          "type": "address"
        }
      ],
      "stateMutability": "view",
      "type": "function"
    },
    {
      "inputs": [],
      "name": "getBalance",
      "outputs": [
        {
          "internalType": "uint256",
          "name": "",
          "type": "uint256"
        }
      ],
      "stateMutability": "view",
      "type": "function"
    },
    {
      "inputs": [],
      "name": "getPayment",
      "outputs": [],
      "stateMutability": "payable",
      "type": "function"
    },
    {
      "inputs": [
        {
          "internalType": "address",
          "name": "owner",
          "type": "address"
        },
        {
          "internalType": "address",
          "name": "operator",
          "type": "address"
        }
      ],
      "name": "isApprovedForAll",
      "outputs": [
        {
          "internalType": "bool",
          "name": "",
          "type": "bool"
        }
      ],
      "stateMutability": "view",
      "type": "function"
    },
    {
      "inputs": [
        {
          "internalType": "address",
          "name": "to",
          "type": "address"
        }
      ],
      "name": "mintTo",
      "outputs": [],
      "stateMutability": "payable",
      "type": "function"
    },
    {
      "inputs": [],
      "name": "name",
      "outputs": [
        {
          "internalType": "string",
          "name": "",
          "type": "string"
        }
      ],
      "stateMutability": "view",
      "type": "function"
    },
    {
      "inputs": [],
      "name": "owner",
      "outputs": [
        {
          "internalType": "address",
          "name": "",
          "type": "address"
        }
      ],
      "stateMutability": "view",
      "type": "function"
    },
    {
      "inputs": [
        {
          "internalType": "uint256",
          "name": "tokenId",
          "type": "uint256"
        }
      ],
      "name": "ownerOf",
      "outputs": [
        {
          "internalType": "address",
          "name": "",
          "type": "address"
        }
      ],
      "stateMutability": "view",
      "type": "function"
    },
    {
      "inputs": [],
      "name": "renounceOwnership",
      "outputs": [],
      "stateMutability": "nonpayable",
      "type": "function"
    },
    {
      "inputs": [
        {
          "internalType": "address",
          "name": "from",
          "type": "address"
        },
        {
          "internalType": "address",
          "name": "to",
          "type": "address"
        },
        {
          "internalType": "uint256",
          "name": "tokenId",
          "type": "uint256"
        }
      ],
      "name": "safeTransferFrom",
      "outputs": [],
      "stateMutability": "nonpayable",
      "type": "function"
    },
    {
      "inputs": [
        {
          "internalType": "address",
          "name": "from",
          "type": "address"
        },
        {
          "internalType": "address",
          "name": "to",
          "type": "address"
        },
        {
          "internalType": "uint256",
          "name": "tokenId",
          "type": "uint256"
        },
        {
          "internalType": "bytes",
          "name": "data",
          "type": "bytes"
        }
      ],
      "name": "safeTransferFrom",
      "outputs": [],
      "stateMutability": "nonpayable",
      "type": "function"
    },
    {
      "inputs": [
        {
          "internalType": "address",
          "name": "operator",
          "type": "address"
        },
        {
          "internalType": "bool",
          "name": "approved",
          "type": "bool"
        }
      ],
      "name": "setApprovalForAll",
      "outputs": [],
      "stateMutability": "nonpayable",
      "type": "function"
    },
    {
      "inputs": [
        {
          "internalType": "string",
          "name": "_baseTokenURI",
          "type": "string"
        }
      ],
      "name": "setBaseTokenURI",
      "outputs": [],
      "stateMutability": "nonpayable",
      "type": "function"
    },
    {
      "inputs": [
        {
          "internalType": "bytes4",
          "name": "interfaceId",
          "type": "bytes4"
        }
      ],
      "name": "supportsInterface",
      "outputs": [
        {
          "internalType": "bool",
          "name": "",
          "type": "bool"
        }
      ],
      "stateMutability": "view",
      "type": "function"
    },
    {
      "inputs": [],
      "name": "symbol",
      "outputs": [
        {
          "internalType": "string",
          "name": "",
          "type": "string"
        }
      ],
      "stateMutability": "view",
      "type": "function"
    },
    {
      "inputs": [
        {
          "internalType": "uint256",
          "name": "index",
          "type": "uint256"
        }
      ],
      "name": "tokenByIndex",
      "outputs": [
        {
          "internalType": "uint256",
          "name": "",
          "type": "uint256"
        }
      ],
      "stateMutability": "view",
      "type": "function"
    },
    {
      "inputs": [
        {
          "internalType": "address",
          "name": "owner",
          "type": "address"
        },
        {
          "internalType": "uint256",
          "name": "index",
          "type": "uint256"
        }
      ],
      "name": "tokenOfOwnerByIndex",
      "outputs": [
        {
          "internalType": "uint256",
          "name": "",
          "type": "uint256"
        }
      ],
      "stateMutability": "view",
      "type": "function"
    },
    {
      "inputs": [
        {
          "internalType": "uint256",
          "name": "tokenId",
          "type": "uint256"
        }
      ],
      "name": "tokenURI",
      "outputs": [
        {
          "internalType": "string",
          "name": "",
          "type": "string"
        }
      ],
      "stateMutability": "view",
      "type": "function"
    },
    {
      "inputs": [],
      "name": "totalSupply",
      "outputs": [
        {
          "internalType": "uint256",
          "name": "",
          "type": "uint256"
        }
      ],
      "stateMutability": "view",
      "type": "function"
    },
    {
      "inputs": [
        {
          "internalType": "address",
          "name": "from",
          "type": "address"
        },
        {
          "internalType": "address",
          "name": "to",
          "type": "address"
        },
        {
          "internalType": "uint256",
          "name": "tokenId",
          "type": "uint256"
        }
      ],
      "name": "transferFrom",
      "outputs": [],
      "stateMutability": "nonpayable",
      "type": "function"
    },
    {
      "inputs": [
        {
          "internalType": "address",
          "name": "newOwner",
          "type": "address"
        }
      ],
      "name": "transferOwnership",
      "outputs": [],
      "stateMutability": "nonpayable",
      "type": "function"
    }
  ],
  "bytecode": "0x60806040523480156200001157600080fd5b506040518060400160405280600381526020017f4e465400000000000000000000000000000000000000000000000000000000008152506040518060400160405280600381526020017f4d544b000000000000000000000000000000000000000000000000000000000081525081600090816200008f919062000453565b508060019081620000a1919062000453565b505050620000c4620000b86200010b60201b60201c565b6200011360201b60201c565b33600c60006101000a81548173ffffffffffffffffffffffffffffffffffffffff021916908373ffffffffffffffffffffffffffffffffffffffff1602179055506200053a565b600033905090565b6000600a60009054906101000a900473ffffffffffffffffffffffffffffffffffffffff16905081600a60006101000a81548173ffffffffffffffffffffffffffffffffffffffff021916908373ffffffffffffffffffffffffffffffffffffffff1602179055508173ffffffffffffffffffffffffffffffffffffffff168173ffffffffffffffffffffffffffffffffffffffff167f8be0079c531659141344cd1fd0a4f28419497f9722a3daafe3b4186f6b6457e060405160405180910390a35050565b600081519050919050565b7f4e487b7100000000000000000000000000000000000000000000000000000000600052604160045260246000fd5b7f4e487b7100000000000000000000000000000000000000000000000000000000600052602260045260246000fd5b600060028204905060018216806200025b57607f821691505b60208210810362000271576200027062000213565b5b50919050565b60008190508160005260206000209050919050565b60006020601f8301049050919050565b600082821b905092915050565b600060088302620002db7fffffffffffffffffffffffffffffffffffffffffffffffffffffffffffffffff826200029c565b620002e786836200029c565b95508019841693508086168417925050509392505050565b6000819050919050565b6000819050919050565b6000620003346200032e6200032884620002ff565b62000309565b620002ff565b9050919050565b6000819050919050565b620003508362000313565b620003686200035f826200033b565b848454620002a9565b825550505050565b600090565b6200037f62000370565b6200038c81848462000345565b505050565b5b81811015620003b457620003a860008262000375565b60018101905062000392565b5050565b601f8211156200040357620003cd8162000277565b620003d8846200028c565b81016020851015620003e8578190505b62000400620003f7856200028c565b83018262000391565b50505b505050565b600082821c905092915050565b6000620004286000198460080262000408565b1980831691505092915050565b600062000443838362000415565b9150826002028217905092915050565b6200045e82620001d9565b67ffffffffffffffff8111156200047a5762000479620001e4565b5b62000486825462000242565b62000493828285620003b8565b600060209050601f831160018114620004cb5760008415620004b6578287015190505b620004c2858262000435565b86555062000532565b601f198416620004db8662000277565b60005b828110156200050557848901518255600182019150602085019450602081019050620004de565b8683101562000525578489015162000521601f89168262000415565b8355505b6001600288020188555050505b505050505050565b613c26806200054a6000396000f3fe6080604052600436106101815760003560e01c8063715018a6116100d1578063b88d4fde1161008a578063c87b56dd11610064578063c87b56dd14610554578063d547cfb714610591578063e985e9c5146105bc578063f2fde38b146105f957610181565b8063b88d4fde146104f6578063bb328a7d1461051f578063c002d23d1461052957610181565b8063715018a614610419578063755edd17146104305780638da5cb5b1461044c57806395d89b4114610477578063a22cb465146104a2578063b4a99a4e146104cb57610181565b806323b872dd1161013e57806342842e0e1161011857806342842e0e146103395780634f6ccce7146103625780636352211e1461039f57806370a08231146103dc57610181565b806323b872dd146102aa5780632f745c59146102d357806330176e131461031057610181565b806301ffc9a71461018657806306fdde03146101c3578063081812fc146101ee578063095ea7b31461022b57806312065fe01461025457806318160ddd1461027f575b600080fd5b34801561019257600080fd5b506101ad60048036038101906101a8919061277f565b610622565b6040516101ba91906127c7565b60405180910390f35b3480156101cf57600080fd5b506101d8610634565b6040516101e59190612872565b60405180910390f35b3480156101fa57600080fd5b50610215600480360381019061021091906128ca565b6106c6565b6040516102229190612938565b60405180910390f35b34801561023757600080fd5b50610252600480360381019061024d919061297f565b61070c565b005b34801561026057600080fd5b50610269610823565b60405161027691906129ce565b60405180910390f35b34801561028b57600080fd5b50610294610885565b6040516102a191906129ce565b60405180910390f35b3480156102b657600080fd5b506102d160048036038101906102cc91906129e9565b610892565b005b3480156102df57600080fd5b506102fa60048036038101906102f5919061297f565b6108f2565b60405161030791906129ce565b60405180910390f35b34801561031c57600080fd5b5061033760048036038101906103329190612b71565b610997565b005b34801561034557600080fd5b50610360600480360381019061035b91906129e9565b6109aa565b005b34801561036e57600080fd5b50610389600480360381019061038491906128ca565b6109ca565b60405161039691906129ce565b60405180910390f35b3480156103ab57600080fd5b506103c660048036038101906103c191906128ca565b610a3b565b6040516103d39190612938565b60405180910390f35b3480156103e857600080fd5b5061040360048036038101906103fe9190612bba565b610ac1565b60405161041091906129ce565b60405180910390f35b34801561042557600080fd5b5061042e610b78565b005b61044a60048036038101906104459190612bba565b610b8c565b005b34801561045857600080fd5b50610461610c32565b60405161046e9190612938565b60405180910390f35b34801561048357600080fd5b5061048c610c5c565b6040516104999190612872565b60405180910390f35b3480156104ae57600080fd5b506104c960048036038101906104c49190612c13565b610cee565b005b3480156104d757600080fd5b506104e0610d04565b6040516104ed9190612938565b60405180910390f35b34801561050257600080fd5b5061051d60048036038101906105189190612cf4565b610d2a565b005b610527610d8c565b005b34801561053557600080fd5b5061053e610e58565b60405161054b91906129ce565b60405180910390f35b34801561056057600080fd5b5061057b600480360381019061057691906128ca565b610e63565b6040516105889190612872565b60405180910390f35b34801561059d57600080fd5b506105a6610ecb565b6040516105b39190612872565b60405180910390f35b3480156105c857600080fd5b506105e360048036038101906105de9190612d77565b610f59565b6040516105f091906127c7565b60405180910390f35b34801561060557600080fd5b50610620600480360381019061061b9190612bba565b610fed565b005b600061062d82611070565b9050919050565b60606000805461064390612de6565b80601f016020809104026020016040519081016040528092919081815260200182805461066f90612de6565b80156106bc5780601f10610691576101008083540402835291602001916106bc565b820191906000526020600020905b81548152906001019060200180831161069f57829003601f168201915b5050505050905090565b60006106d1826110ea565b6004600083815260200190815260200160002060009054906101000a900473ffffffffffffffffffffffffffffffffffffffff169050919050565b600061071782610a3b565b90508073ffffffffffffffffffffffffffffffffffffffff168373ffffffffffffffffffffffffffffffffffffffff1603610787576040517f08c379a000000000000000000000000000000000000000000000000000000000815260040161077e90612e89565b60405180910390fd5b8073ffffffffffffffffffffffffffffffffffffffff166107a6611135565b73ffffffffffffffffffffffffffffffffffffffff1614806107d557506107d4816107cf611135565b610f59565b5b610814576040517f08c379a000000000000000000000000000000000000000000000000000000000815260040161080b90612f1b565b60405180910390fd5b61081e838361113d565b505050565b6000600c60009054906101000a900473ffffffffffffffffffffffffffffffffffffffff1673ffffffffffffffffffffffffffffffffffffffff163373ffffffffffffffffffffffffffffffffffffffff161461087f57600080fd5b47905090565b6000600880549050905090565b6108a361089d611135565b826111f6565b6108e2576040517f08c379a00000000000000000000000000000000000000000000000000000000081526004016108d990612fad565b60405180910390fd5b6108ed83838361128b565b505050565b60006108fd83610ac1565b821061093e576040517f08c379a00000000000000000000000000000000000000000000000000000000081526004016109359061303f565b60405180910390fd5b600660008473ffffffffffffffffffffffffffffffffffffffff1673ffffffffffffffffffffffffffffffffffffffff168152602001908152602001600020600083815260200190815260200160002054905092915050565b80600d90816109a6919061320b565b5050565b6109c583838360405180602001604052806000815250610d2a565b505050565b60006109d4610885565b8210610a15576040517f08c379a0000000000000000000000000000000000000000000000000000000008152600401610a0c9061334f565b60405180910390fd5b60088281548110610a2957610a2861336f565b5b90600052602060002001549050919050565b600080610a4783611584565b9050600073ffffffffffffffffffffffffffffffffffffffff168173ffffffffffffffffffffffffffffffffffffffff1603610ab8576040517f08c379a0000000000000000000000000000000000000000000000000000000008152600401610aaf906133ea565b60405180910390fd5b80915050919050565b60008073ffffffffffffffffffffffffffffffffffffffff168273ffffffffffffffffffffffffffffffffffffffff1603610b31576040517f08c379a0000000000000000000000000000000000000000000000000000000008152600401610b289061347c565b60405180910390fd5b600360008373ffffffffffffffffffffffffffffffffffffffff1673ffffffffffffffffffffffffffffffffffffffff168152602001908152602001600020549050919050565b610b806115c1565b610b8a600061163f565b565b6000610b98600b611705565b905066b1a2bc2ec500003414610be3576040517f08c379a0000000000000000000000000000000000000000000000000000000008152600401610bda9061350e565b60405180910390fd5b610bed600b611713565b610bf78282611729565b7f05297781ec3be961005343c79526e11fa2c29f53380c82e2beafdd9372bd75be81604051610c2691906129ce565b60405180910390a15050565b6000600a60009054906101000a900473ffffffffffffffffffffffffffffffffffffffff16905090565b606060018054610c6b90612de6565b80601f0160208091040260200160405190810160405280929190818152602001828054610c9790612de6565b8015610ce45780601f10610cb957610100808354040283529160200191610ce4565b820191906000526020600020905b815481529060010190602001808311610cc757829003601f168201915b5050505050905090565b610d00610cf9611135565b8383611747565b5050565b600c60009054906101000a900473ffffffffffffffffffffffffffffffffffffffff1681565b610d3b610d35611135565b836111f6565b610d7a576040517f08c379a0000000000000000000000000000000000000000000000000000000008152600401610d7190612fad565b60405180910390fd5b610d86848484846118b3565b50505050565b600c60009054906101000a900473ffffffffffffffffffffffffffffffffffffffff1673ffffffffffffffffffffffffffffffffffffffff163373ffffffffffffffffffffffffffffffffffffffff1614610de657600080fd5b600c60009054906101000a900473ffffffffffffffffffffffffffffffffffffffff1673ffffffffffffffffffffffffffffffffffffffff166108fc610e2a610823565b9081150290604051600060405180830381858888f19350505050158015610e55573d6000803e3d6000fd5b50565b66b1a2bc2ec5000081565b6060610e6e826110ea565b6000610e7861190f565b90506000815111610e985760405180602001604052806000815250610ec3565b80610ea2846119a1565b604051602001610eb392919061356a565b6040516020818303038152906040525b915050919050565b600d8054610ed890612de6565b80601f0160208091040260200160405190810160405280929190818152602001828054610f0490612de6565b8015610f515780601f10610f2657610100808354040283529160200191610f51565b820191906000526020600020905b815481529060010190602001808311610f3457829003601f168201915b505050505081565b6000600560008473ffffffffffffffffffffffffffffffffffffffff1673ffffffffffffffffffffffffffffffffffffffff16815260200190815260200160002060008373ffffffffffffffffffffffffffffffffffffffff1673ffffffffffffffffffffffffffffffffffffffff16815260200190815260200160002060009054906101000a900460ff16905092915050565b610ff56115c1565b600073ffffffffffffffffffffffffffffffffffffffff168173ffffffffffffffffffffffffffffffffffffffff1603611064576040517f08c379a000000000000000000000000000000000000000000000000000000000815260040161105b90613600565b60405180910390fd5b61106d8161163f565b50565b60007f780e9d63000000000000000000000000000000000000000000000000000000007bffffffffffffffffffffffffffffffffffffffffffffffffffffffff1916827bffffffffffffffffffffffffffffffffffffffffffffffffffffffff191614806110e357506110e282611a6f565b5b9050919050565b6110f381611b51565b611132576040517f08c379a0000000000000000000000000000000000000000000000000000000008152600401611129906133ea565b60405180910390fd5b50565b600033905090565b816004600083815260200190815260200160002060006101000a81548173ffffffffffffffffffffffffffffffffffffffff021916908373ffffffffffffffffffffffffffffffffffffffff160217905550808273ffffffffffffffffffffffffffffffffffffffff166111b083610a3b565b73ffffffffffffffffffffffffffffffffffffffff167f8c5be1e5ebec7d5bd14f71427d1e84f3dd0314c0f7b2291e5b200ac8c7c3b92560405160405180910390a45050565b60008061120283610a3b565b90508073ffffffffffffffffffffffffffffffffffffffff168473ffffffffffffffffffffffffffffffffffffffff16148061124457506112438185610f59565b5b8061128257508373ffffffffffffffffffffffffffffffffffffffff1661126a846106c6565b73ffffffffffffffffffffffffffffffffffffffff16145b91505092915050565b8273ffffffffffffffffffffffffffffffffffffffff166112ab82610a3b565b73ffffffffffffffffffffffffffffffffffffffff1614611301576040517f08c379a00000000000000000000000000000000000000000000000000000000081526004016112f890613692565b60405180910390fd5b600073ffffffffffffffffffffffffffffffffffffffff168273ffffffffffffffffffffffffffffffffffffffff1603611370576040517f08c379a000000000000000000000000000000000000000000000000000000000815260040161136790613724565b60405180910390fd5b61137d8383836001611b92565b8273ffffffffffffffffffffffffffffffffffffffff1661139d82610a3b565b73ffffffffffffffffffffffffffffffffffffffff16146113f3576040517f08c379a00000000000000000000000000000000000000000000000000000000081526004016113ea90613692565b60405180910390fd5b6004600082815260200190815260200160002060006101000a81549073ffffffffffffffffffffffffffffffffffffffff02191690556001600360008573ffffffffffffffffffffffffffffffffffffffff1673ffffffffffffffffffffffffffffffffffffffff168152602001908152602001600020600082825403925050819055506001600360008473ffffffffffffffffffffffffffffffffffffffff1673ffffffffffffffffffffffffffffffffffffffff16815260200190815260200160002060008282540192505081905550816002600083815260200190815260200160002060006101000a81548173ffffffffffffffffffffffffffffffffffffffff021916908373ffffffffffffffffffffffffffffffffffffffff160217905550808273ffffffffffffffffffffffffffffffffffffffff168473ffffffffffffffffffffffffffffffffffffffff167fddf252ad1be2c89b69c2b068fc378daa952ba7f163c4a11628f55a4df523b3ef60405160405180910390a461157f8383836001611ba4565b505050565b60006002600083815260200190815260200160002060009054906101000a900473ffffffffffffffffffffffffffffffffffffffff169050919050565b6115c9611135565b73ffffffffffffffffffffffffffffffffffffffff166115e7610c32565b73ffffffffffffffffffffffffffffffffffffffff161461163d576040517f08c379a000000000000000000000000000000000000000000000000000000000815260040161163490613790565b60405180910390fd5b565b6000600a60009054906101000a900473ffffffffffffffffffffffffffffffffffffffff16905081600a60006101000a81548173ffffffffffffffffffffffffffffffffffffffff021916908373ffffffffffffffffffffffffffffffffffffffff1602179055508173ffffffffffffffffffffffffffffffffffffffff168173ffffffffffffffffffffffffffffffffffffffff167f8be0079c531659141344cd1fd0a4f28419497f9722a3daafe3b4186f6b6457e060405160405180910390a35050565b600081600001549050919050565b6001816000016000828254019250508190555050565b611743828260405180602001604052806000815250611baa565b5050565b8173ffffffffffffffffffffffffffffffffffffffff168373ffffffffffffffffffffffffffffffffffffffff16036117b5576040517f08c379a00000000000000000000000000000000000000000000000000000000081526004016117ac906137fc565b60405180910390fd5b80600560008573ffffffffffffffffffffffffffffffffffffffff1673ffffffffffffffffffffffffffffffffffffffff16815260200190815260200160002060008473ffffffffffffffffffffffffffffffffffffffff1673ffffffffffffffffffffffffffffffffffffffff16815260200190815260200160002060006101000a81548160ff0219169083151502179055508173ffffffffffffffffffffffffffffffffffffffff168373ffffffffffffffffffffffffffffffffffffffff167f17307eab39ab6107e8899845ad3d59bd9653f200f220920489ca2b5937696c31836040516118a691906127c7565b60405180910390a3505050565b6118be84848461128b565b6118ca84848484611c05565b611909576040517f08c379a00000000000000000000000000000000000000000000000000000000081526004016119009061388e565b60405180910390fd5b50505050565b6060600d805461191e90612de6565b80601f016020809104026020016040519081016040528092919081815260200182805461194a90612de6565b80156119975780601f1061196c57610100808354040283529160200191611997565b820191906000526020600020905b81548152906001019060200180831161197a57829003601f168201915b5050505050905090565b6060600060016119b084611d8c565b01905060008167ffffffffffffffff8111156119cf576119ce612a46565b5b6040519080825280601f01601f191660200182016040528015611a015781602001600182028036833780820191505090505b509050600082602001820190505b600115611a64578080600190039150507f3031323334353637383961626364656600000000000000000000000000000000600a86061a8153600a8581611a5857611a576138ae565b5b04945060008503611a0f575b819350505050919050565b60007f80ac58cd000000000000000000000000000000000000000000000000000000007bffffffffffffffffffffffffffffffffffffffffffffffffffffffff1916827bffffffffffffffffffffffffffffffffffffffffffffffffffffffff19161480611b3a57507f5b5e139f000000000000000000000000000000000000000000000000000000007bffffffffffffffffffffffffffffffffffffffffffffffffffffffff1916827bffffffffffffffffffffffffffffffffffffffffffffffffffffffff1916145b80611b4a5750611b4982611edf565b5b9050919050565b60008073ffffffffffffffffffffffffffffffffffffffff16611b7383611584565b73ffffffffffffffffffffffffffffffffffffffff1614159050919050565b611b9e84848484611f49565b50505050565b50505050565b611bb483836120a7565b611bc16000848484611c05565b611c00576040517f08c379a0000000000000000000000000000000000000000000000000000000008152600401611bf79061388e565b60405180910390fd5b505050565b6000611c268473ffffffffffffffffffffffffffffffffffffffff166122c4565b15611d7f578373ffffffffffffffffffffffffffffffffffffffff1663150b7a02611c4f611135565b8786866040518563ffffffff1660e01b8152600401611c719493929190613932565b6020604051808303816000875af1925050508015611cad57506040513d601f19601f82011682018060405250810190611caa9190613993565b60015b611d2f573d8060008114611cdd576040519150601f19603f3d011682016040523d82523d6000602084013e611ce2565b606091505b506000815103611d27576040517f08c379a0000000000000000000000000000000000000000000000000000000008152600401611d1e9061388e565b60405180910390fd5b805181602001fd5b63150b7a0260e01b7bffffffffffffffffffffffffffffffffffffffffffffffffffffffff1916817bffffffffffffffffffffffffffffffffffffffffffffffffffffffff191614915050611d84565b600190505b949350505050565b600080600090507a184f03e93ff9f4daa797ed6e38ed64bf6a1f0100000000000000008310611dea577a184f03e93ff9f4daa797ed6e38ed64bf6a1f0100000000000000008381611de057611ddf6138ae565b5b0492506040810190505b6d04ee2d6d415b85acef81000000008310611e27576d04ee2d6d415b85acef81000000008381611e1d57611e1c6138ae565b5b0492506020810190505b662386f26fc100008310611e5657662386f26fc100008381611e4c57611e4b6138ae565b5b0492506010810190505b6305f5e1008310611e7f576305f5e1008381611e7557611e746138ae565b5b0492506008810190505b6127108310611ea4576127108381611e9a57611e996138ae565b5b0492506004810190505b60648310611ec75760648381611ebd57611ebc6138ae565b5b0492506002810190505b600a8310611ed6576001810190505b80915050919050565b60007f01ffc9a7000000000000000000000000000000000000000000000000000000007bffffffffffffffffffffffffffffffffffffffffffffffffffffffff1916827bffffffffffffffffffffffffffffffffffffffffffffffffffffffff1916149050919050565b611f55848484846122e7565b6001811115611f99576040517f08c379a0000000000000000000000000000000000000000000000000000000008152600401611f9090613a32565b60405180910390fd5b6000829050600073ffffffffffffffffffffffffffffffffffffffff168573ffffffffffffffffffffffffffffffffffffffff1603611fe057611fdb8161240d565b61201f565b8373ffffffffffffffffffffffffffffffffffffffff168573ffffffffffffffffffffffffffffffffffffffff161461201e5761201d8582612456565b5b5b600073ffffffffffffffffffffffffffffffffffffffff168473ffffffffffffffffffffffffffffffffffffffff16036120615761205c816125c3565b6120a0565b8473ffffffffffffffffffffffffffffffffffffffff168473ffffffffffffffffffffffffffffffffffffffff161461209f5761209e8482612694565b5b5b5050505050565b600073ffffffffffffffffffffffffffffffffffffffff168273ffffffffffffffffffffffffffffffffffffffff1603612116576040517f08c379a000000000000000000000000000000000000000000000000000000000815260040161210d90613a9e565b60405180910390fd5b61211f81611b51565b1561215f576040517f08c379a000000000000000000000000000000000000000000000000000000000815260040161215690613b0a565b60405180910390fd5b61216d600083836001611b92565b61217681611b51565b156121b6576040517f08c379a00000000000000000000000000000000000000000000000000000000081526004016121ad90613b0a565b60405180910390fd5b6001600360008473ffffffffffffffffffffffffffffffffffffffff1673ffffffffffffffffffffffffffffffffffffffff16815260200190815260200160002060008282540192505081905550816002600083815260200190815260200160002060006101000a81548173ffffffffffffffffffffffffffffffffffffffff021916908373ffffffffffffffffffffffffffffffffffffffff160217905550808273ffffffffffffffffffffffffffffffffffffffff16600073ffffffffffffffffffffffffffffffffffffffff167fddf252ad1be2c89b69c2b068fc378daa952ba7f163c4a11628f55a4df523b3ef60405160405180910390a46122c0600083836001611ba4565b5050565b6000808273ffffffffffffffffffffffffffffffffffffffff163b119050919050565b600181111561240757600073ffffffffffffffffffffffffffffffffffffffff168473ffffffffffffffffffffffffffffffffffffffff161461237b5780600360008673ffffffffffffffffffffffffffffffffffffffff1673ffffffffffffffffffffffffffffffffffffffff16815260200190815260200160002060008282546123739190613b59565b925050819055505b600073ffffffffffffffffffffffffffffffffffffffff168373ffffffffffffffffffffffffffffffffffffffff16146124065780600360008573ffffffffffffffffffffffffffffffffffffffff1673ffffffffffffffffffffffffffffffffffffffff16815260200190815260200160002060008282546123fe9190613b8d565b925050819055505b5b50505050565b6008805490506009600083815260200190815260200160002081905550600881908060018154018082558091505060019003906000526020600020016000909190919091505550565b6000600161246384610ac1565b61246d9190613b59565b9050600060076000848152602001908152602001600020549050818114612552576000600660008673ffffffffffffffffffffffffffffffffffffffff1673ffffffffffffffffffffffffffffffffffffffff168152602001908152602001600020600084815260200190815260200160002054905080600660008773ffffffffffffffffffffffffffffffffffffffff1673ffffffffffffffffffffffffffffffffffffffff168152602001908152602001600020600084815260200190815260200160002081905550816007600083815260200190815260200160002081905550505b6007600084815260200190815260200160002060009055600660008573ffffffffffffffffffffffffffffffffffffffff1673ffffffffffffffffffffffffffffffffffffffff16815260200190815260200160002060008381526020019081526020016000206000905550505050565b600060016008805490506125d79190613b59565b90506000600960008481526020019081526020016000205490506000600883815481106126075761260661336f565b5b9060005260206000200154905080600883815481106126295761262861336f565b5b90600052602060002001819055508160096000838152602001908152602001600020819055506009600085815260200190815260200160002060009055600880548061267857612677613bc1565b5b6001900381819060005260206000200160009055905550505050565b600061269f83610ac1565b905081600660008573ffffffffffffffffffffffffffffffffffffffff1673ffffffffffffffffffffffffffffffffffffffff168152602001908152602001600020600083815260200190815260200160002081905550806007600084815260200190815260200160002081905550505050565b6000604051905090565b600080fd5b600080fd5b60007fffffffff0000000000000000000000000000000000000000000000000000000082169050919050565b61275c81612727565b811461276757600080fd5b50565b60008135905061277981612753565b92915050565b6000602082840312156127955761279461271d565b5b60006127a38482850161276a565b91505092915050565b60008115159050919050565b6127c1816127ac565b82525050565b60006020820190506127dc60008301846127b8565b92915050565b600081519050919050565b600082825260208201905092915050565b60005b8381101561281c578082015181840152602081019050612801565b60008484015250505050565b6000601f19601f8301169050919050565b6000612844826127e2565b61284e81856127ed565b935061285e8185602086016127fe565b61286781612828565b840191505092915050565b6000602082019050818103600083015261288c8184612839565b905092915050565b6000819050919050565b6128a781612894565b81146128b257600080fd5b50565b6000813590506128c48161289e565b92915050565b6000602082840312156128e0576128df61271d565b5b60006128ee848285016128b5565b91505092915050565b600073ffffffffffffffffffffffffffffffffffffffff82169050919050565b6000612922826128f7565b9050919050565b61293281612917565b82525050565b600060208201905061294d6000830184612929565b92915050565b61295c81612917565b811461296757600080fd5b50565b60008135905061297981612953565b92915050565b600080604083850312156129965761299561271d565b5b60006129a48582860161296a565b92505060206129b5858286016128b5565b9150509250929050565b6129c881612894565b82525050565b60006020820190506129e360008301846129bf565b92915050565b600080600060608486031215612a0257612a0161271d565b5b6000612a108682870161296a565b9350506020612a218682870161296a565b9250506040612a32868287016128b5565b9150509250925092565b600080fd5b600080fd5b7f4e487b7100000000000000000000000000000000000000000000000000000000600052604160045260246000fd5b612a7e82612828565b810181811067ffffffffffffffff82111715612a9d57612a9c612a46565b5b80604052505050565b6000612ab0612713565b9050612abc8282612a75565b919050565b600067ffffffffffffffff821115612adc57612adb612a46565b5b612ae582612828565b9050602081019050919050565b82818337600083830152505050565b6000612b14612b0f84612ac1565b612aa6565b905082815260208101848484011115612b3057612b2f612a41565b5b612b3b848285612af2565b509392505050565b600082601f830112612b5857612b57612a3c565b5b8135612b68848260208601612b01565b91505092915050565b600060208284031215612b8757612b8661271d565b5b600082013567ffffffffffffffff811115612ba557612ba4612722565b5b612bb184828501612b43565b91505092915050565b600060208284031215612bd057612bcf61271d565b5b6000612bde8482850161296a565b91505092915050565b612bf0816127ac565b8114612bfb57600080fd5b50565b600081359050612c0d81612be7565b92915050565b60008060408385031215612c2a57612c2961271d565b5b6000612c388582860161296a565b9250506020612c4985828601612bfe565b9150509250929050565b600067ffffffffffffffff821115612c6e57612c6d612a46565b5b612c7782612828565b9050602081019050919050565b6000612c97612c9284612c53565b612aa6565b905082815260208101848484011115612cb357612cb2612a41565b5b612cbe848285612af2565b509392505050565b600082601f830112612cdb57612cda612a3c565b5b8135612ceb848260208601612c84565b91505092915050565b60008060008060808587031215612d0e57612d0d61271d565b5b6000612d1c8782880161296a565b9450506020612d2d8782880161296a565b9350506040612d3e878288016128b5565b925050606085013567ffffffffffffffff811115612d5f57612d5e612722565b5b612d6b87828801612cc6565b91505092959194509250565b60008060408385031215612d8e57612d8d61271d565b5b6000612d9c8582860161296a565b9250506020612dad8582860161296a565b9150509250929050565b7f4e487b7100000000000000000000000000000000000000000000000000000000600052602260045260246000fd5b60006002820490506001821680612dfe57607f821691505b602082108103612e1157612e10612db7565b5b50919050565b7f4552433732313a20617070726f76616c20746f2063757272656e74206f776e6560008201527f7200000000000000000000000000000000000000000000000000000000000000602082015250565b6000612e736021836127ed565b9150612e7e82612e17565b604082019050919050565b60006020820190508181036000830152612ea281612e66565b9050919050565b7f4552433732313a20617070726f76652063616c6c6572206973206e6f7420746f60008201527f6b656e206f776e6572206f7220617070726f76656420666f7220616c6c000000602082015250565b6000612f05603d836127ed565b9150612f1082612ea9565b604082019050919050565b60006020820190508181036000830152612f3481612ef8565b9050919050565b7f4552433732313a2063616c6c6572206973206e6f7420746f6b656e206f776e6560008201527f72206f7220617070726f76656400000000000000000000000000000000000000602082015250565b6000612f97602d836127ed565b9150612fa282612f3b565b604082019050919050565b60006020820190508181036000830152612fc681612f8a565b9050919050565b7f455243373231456e756d657261626c653a206f776e657220696e646578206f7560008201527f74206f6620626f756e6473000000000000000000000000000000000000000000602082015250565b6000613029602b836127ed565b915061303482612fcd565b604082019050919050565b600060208201905081810360008301526130588161301c565b9050919050565b60008190508160005260206000209050919050565b60006020601f8301049050919050565b600082821b905092915050565b6000600883026130c17fffffffffffffffffffffffffffffffffffffffffffffffffffffffffffffffff82613084565b6130cb8683613084565b95508019841693508086168417925050509392505050565b6000819050919050565b60006131086131036130fe84612894565b6130e3565b612894565b9050919050565b6000819050919050565b613122836130ed565b61313661312e8261310f565b848454613091565b825550505050565b600090565b61314b61313e565b613156818484613119565b505050565b5b8181101561317a5761316f600082613143565b60018101905061315c565b5050565b601f8211156131bf576131908161305f565b61319984613074565b810160208510156131a8578190505b6131bc6131b485613074565b83018261315b565b50505b505050565b600082821c905092915050565b60006131e2600019846008026131c4565b1980831691505092915050565b60006131fb83836131d1565b9150826002028217905092915050565b613214826127e2565b67ffffffffffffffff81111561322d5761322c612a46565b5b6132378254612de6565b61324282828561317e565b600060209050601f8311600181146132755760008415613263578287015190505b61326d85826131ef565b8655506132d5565b601f1984166132838661305f565b60005b828110156132ab57848901518255600182019150602085019450602081019050613286565b868310156132c857848901516132c4601f8916826131d1565b8355505b6001600288020188555050505b505050505050565b7f455243373231456e756d657261626c653a20676c6f62616c20696e646578206f60008201527f7574206f6620626f756e64730000000000000000000000000000000000000000602082015250565b6000613339602c836127ed565b9150613344826132dd565b604082019050919050565b600060208201905081810360008301526133688161332c565b9050919050565b7f4e487b7100000000000000000000000000000000000000000000000000000000600052603260045260246000fd5b7f4552433732313a20696e76616c696420746f6b656e2049440000000000000000600082015250565b60006133d46018836127ed565b91506133df8261339e565b602082019050919050565b60006020820190508181036000830152613403816133c7565b9050919050565b7f4552433732313a2061646472657373207a65726f206973206e6f74206120766160008201527f6c6964206f776e65720000000000000000000000000000000000000000000000602082015250565b60006134666029836127ed565b91506134718261340a565b604082019050919050565b6000602082019050818103600083015261349581613459565b9050919050565b7f5472616e73616374696f6e2076616c756520646964206e6f7420657175616c2060008201527f746865206d696e74207072696365000000000000000000000000000000000000602082015250565b60006134f8602e836127ed565b91506135038261349c565b604082019050919050565b60006020820190508181036000830152613527816134eb565b9050919050565b600081905092915050565b6000613544826127e2565b61354e818561352e565b935061355e8185602086016127fe565b80840191505092915050565b60006135768285613539565b91506135828284613539565b91508190509392505050565b7f4f776e61626c653a206e6577206f776e657220697320746865207a65726f206160008201527f6464726573730000000000000000000000000000000000000000000000000000602082015250565b60006135ea6026836127ed565b91506135f58261358e565b604082019050919050565b60006020820190508181036000830152613619816135dd565b9050919050565b7f4552433732313a207472616e736665722066726f6d20696e636f72726563742060008201527f6f776e6572000000000000000000000000000000000000000000000000000000602082015250565b600061367c6025836127ed565b915061368782613620565b604082019050919050565b600060208201905081810360008301526136ab8161366f565b9050919050565b7f4552433732313a207472616e7366657220746f20746865207a65726f2061646460008201527f7265737300000000000000000000000000000000000000000000000000000000602082015250565b600061370e6024836127ed565b9150613719826136b2565b604082019050919050565b6000602082019050818103600083015261373d81613701565b9050919050565b7f4f776e61626c653a2063616c6c6572206973206e6f7420746865206f776e6572600082015250565b600061377a6020836127ed565b915061378582613744565b602082019050919050565b600060208201905081810360008301526137a98161376d565b9050919050565b7f4552433732313a20617070726f766520746f2063616c6c657200000000000000600082015250565b60006137e66019836127ed565b91506137f1826137b0565b602082019050919050565b60006020820190508181036000830152613815816137d9565b9050919050565b7f4552433732313a207472616e7366657220746f206e6f6e20455243373231526560008201527f63656976657220696d706c656d656e7465720000000000000000000000000000602082015250565b60006138786032836127ed565b91506138838261381c565b604082019050919050565b600060208201905081810360008301526138a78161386b565b9050919050565b7f4e487b7100000000000000000000000000000000000000000000000000000000600052601260045260246000fd5b600081519050919050565b600082825260208201905092915050565b6000613904826138dd565b61390e81856138e8565b935061391e8185602086016127fe565b61392781612828565b840191505092915050565b60006080820190506139476000830187612929565b6139546020830186612929565b61396160408301856129bf565b818103606083015261397381846138f9565b905095945050505050565b60008151905061398d81612753565b92915050565b6000602082840312156139a9576139a861271d565b5b60006139b78482850161397e565b91505092915050565b7f455243373231456e756d657261626c653a20636f6e736563757469766520747260008201527f616e7366657273206e6f7420737570706f727465640000000000000000000000602082015250565b6000613a1c6035836127ed565b9150613a27826139c0565b604082019050919050565b60006020820190508181036000830152613a4b81613a0f565b9050919050565b7f4552433732313a206d696e7420746f20746865207a65726f2061646472657373600082015250565b6000613a886020836127ed565b9150613a9382613a52565b602082019050919050565b60006020820190508181036000830152613ab781613a7b565b9050919050565b7f4552433732313a20746f6b656e20616c7265616479206d696e74656400000000600082015250565b6000613af4601c836127ed565b9150613aff82613abe565b602082019050919050565b60006020820190508181036000830152613b2381613ae7565b9050919050565b7f4e487b7100000000000000000000000000000000000000000000000000000000600052601160045260246000fd5b6000613b6482612894565b9150613b6f83612894565b9250828203905081811115613b8757613b86613b2a565b5b92915050565b6000613b9882612894565b9150613ba383612894565b9250828201905080821115613bbb57613bba613b2a565b5b92915050565b7f4e487b7100000000000000000000000000000000000000000000000000000000600052603160045260246000fdfea2646970667358221220f93c45f52758fe0deb633b521379ec7ae32080483653741d4a6417371ffc133c64736f6c63430008110033",
  "linkReferences": {},
  "deployedLinkReferences": {}
}